:100000000C9488000C94B0000C94B0000C94B000D8
:100010000C94B0000C94B0000C94B0000C94B000A0
:100020000C94B0000C94B0000C94B0000C94B00090
:100030000C94B0000C94B0000C94B0000C94B00080
:100040000C9445050C94B0000C94B5050C948F05E8
:100050000C94B0000C94B0000C94B0000C94B00060
:100060000C94B0000C94B0000000000023002600A7
:10007000290044485431313A0044485431313A203F
:100080004572726575720048756D6964697479208E
:100090003D200054656D7065726174757265203D18
:1000A00020004269656E76656E7565206175204732
:1000B0005041373838204F432F496F54000000001B
:1000C00000240027002A0000000000250028002B43
:1000D00000040404040404040402020202020203F1
:1000E00003030303030102040810204080010204FB
:1000F000081020010204081020000000080002017E
:100100000000030407000000000000000000E705F5
:1001100011241FBECFEFD8E0DEBFCDBF11E0A0E0BD
:10012000B1E0E4E6F6E102C005900D92AC37B1070C
:10013000D9F722E0ACE7B1E001C01D92AA34B207C2
:10014000E1F710E0C8E8D0E004C02197FE010E946A
:100150002A0BC738D107C9F70E9440060C94300B10
:100160000C94000090E0FC01E750FF4F2491FC014B
:10017000EB51FF4F3491FC01EF52FF4FE491EE231E
:10018000C9F0222339F0233001F1A8F4213019F10C
:10019000223029F1F0E0EE0FFF1FE953FF4FA59148
:1001A000B4918FB7F894EC91611126C030953E233D
:1001B0003C938FBF08952730A9F02830C9F0243030
:1001C00049F7809180008F7D03C0809180008F77F8
:1001D00080938000DFCF84B58F7784BDDBCF84B57B
:1001E0008F7DFBCF8091B0008F778093B000D2CF0E
:1001F0008091B0008F7DF9CF3E2BDACFCF93DF9384
:1002000090E0FC01EB51FF4F24918F529F4FFC0176
:1002100084918823D1F090E0880F991FFC01E3546A
:10022000FF4FA591B491FC01E953FF4FC591D491C3
:1002300061110EC09FB7F8948C91E22FE0958E2348
:100240008C932881E223E8839FBFDF91CF910895AB
:100250008FB7F894EC91E22BEC938FBFF6CF3FB7BA
:10026000F8948091830190918401A0918501B091CF
:10027000860126B5A89B05C02F3F19F00196A11D48
:10028000B11D3FBFBA2FA92F982F8827BC01CD01E0
:10029000620F711D811D911D42E0660F771F881F3F
:1002A000991F4A95D1F70895DC01ED91FC910190D9
:1002B000F081E02D0994AF92BF92CF92DF92EF923E
:1002C000FF920F931F93CF93DF936C017B018B0100
:1002D000040F151FEB015E01AE18BF08C017D10750
:1002E00059F06991D601ED91FC910190F081E02DDA
:1002F000C6010995892B79F7C501DF91CF911F912F
:100300000F91FF90EF90DF90CF90BF90AF90089546
:10031000FC01538D448D252F30E0842F90E0821B0B
:10032000930B541710F0CF96089501970895FC0190
:10033000918D828D981761F0A28DAE0FBF2FB11DE8
:100340005D968C91928D9F5F9F73928F90E0089540
:100350008FEF9FEF0895FC01918D828D981731F0FA
:10036000828DE80FF11D858D90E008958FEF9FEF4E
:100370000895FC01918D228D892F90E0805C9F4F24
:10038000821B91098F739927089587E891E00E9455
:10039000B90121E0892B09F420E0822F089580E043
:1003A00090E0892B29F00E94C50181110C94000076
:1003B0000895FC01A48DA80FB92FB11DA35ABF4FFA
:1003C0002C91848D90E001968F739927848FA68954
:1003D000B7892C93A089B1898C91837080648C93A8
:1003E000938D848D981306C00288F389E02D808157
:1003F0008F7D80830895EF92FF920F931F93CF9389
:10040000DF93EC0181E0888F9B8D8C8D98131AC04F
:10041000E889F989808185FF15C09FB7F894EE8936
:10042000FF896083E889F989808183708064808393
:100430009FBF81E090E0DF91CF911F910F91FF90DE
:10044000EF900895F62E0B8D10E00F5F1F4F0F7386
:100450001127E02E8C8D8E110CC00FB607FCFACF41
:10046000E889F989808185FFF5CFCE010E94D90105
:10047000F1CFEB8DEC0FFD2FF11DE35AFF4FF08212
:100480009FB7F8940B8FEA89FB8980818062CFCF78
:100490000F931F93CF93DF938C01D0E0C0E0F8015E
:1004A000EC0FFD1F6491662341F087E891E00E9404
:1004B000FB01892B11F02196F2CFCE01DF91CF9174
:1004C0001F910F910895CF93DF93EC01888D8823BE
:1004D000B9F0AA89BB89E889F9898C9185FD03C0A7
:1004E000808186FD0DC00FB607FCF7CF8C9185FF8C
:1004F000F2CF808185FFEDCFCE010E94D901E9CFF7
:10050000DF91CF910895089590E080E008950F93D2
:100510001F934FB7F89400917F01109180012091B3
:100520008101309182014FBF600F711F821F931FA5
:100530004FB7F89400917F011091800120918101C3
:10054000309182014FBF061717072807390780F33C
:100550001F910F910895CF93DF93EC0160E08E819E
:100560000E94B20061E08E810E94B20060E08E8144
:100570000E94B2008BE891E00197F1F7DF91CF91F3
:100580000895CF92DF92EF92FF920F931F93CF9334
:10059000DF936C017C0187E0E80EF11CD0E0C0E045
:1005A000062F10E0B8010C2E02C0759567950A94CD
:1005B000E2F76170F70181917F010E94B2002196FC
:1005C000C430D10579F7C601DF91CF911F910F910A
:1005D000FF90EF90DF90CF900C94AB02CF92DF9220
:1005E000EF92FF920F931F93CF93DF93EC01F62EC0
:1005F000642F8C810E94B2008D818F3F19F060E0E2
:100600000E94B2000F2D10E08F8584FF25C06E017F
:1006100087E0C80ED11CF12CE12CB8010E2C02C0D1
:10062000759567950A94E2F76170F60181916F0103
:100630000E94B200FFEFEF1AFF0A88E0E816F1040B
:1006400061F7CE01DF91CF911F910F91FF90EF9055
:10065000DF90CF900C94AB02B80184E0759567955C
:100660008A95E1F7CE010E94C1026F2DCE01DF9184
:10067000CF911F910F91FF90EF90DF90CF900C944E
:10068000C10240E0682F82E392E00C94EE0281E028
:100690000E9441038BE39FE10197F1F70895CF9307
:1006A000DF93823029F49091410298609093410247
:1006B000809345021092460280E48093470280E1D5
:1006C0008093480280E58093490261E08091360280
:1006D0000E94FE00809137028F3F19F061E00E9476
:1006E000FE0061E0809138020E94FE00C2E3D2E089
:1006F0009E01225332408091410284FD0BC084E070
:1007000090E021962817390744F461E08E810E9419
:10071000FE00EECF88E090E0F4CF8BE39DE0019700
:10072000F1F760E0809136020E94B20060E08091B3
:1007300038020E94B200809137028F3F19F060E0CA
:100740000E94B2008091410284FD34C063E082E3E4
:1007500092E00E94C102CBE4D6E4CE010197F1F70A
:1007600063E082E392E00E94C1022197F1F763E027
:1007700082E392E00E94C10283E592E00197F1F7E3
:1007800062E082E392E00E94C102809141028062B5
:100790000E94410384E0809342028CE00E94410366
:1007A0000E94470382E08093430286E0DF91CF916D
:1007B0000C94410380620E9441038BE496E401970C
:1007C000F1F78091410280620E94410383E592E04B
:1007D0000197F1F78091410280620E944103D5CFD9
:1007E00090914502891710F08FEF890FE82FF0E004
:1007F000EE5CFD4F848980680C94410341E00E94C7
:10080000EE0281E090E00895FB0101900020E9F7FD
:100810003197AF01461B570BDC01ED91FC91028033
:10082000F381E02D09948F929F92AF92BF92EF9245
:10083000FF920F931F93CF93DF93CDB7DEB7A197AE
:100840000FB6F894DEBF0FBECDBF7C01FA01CB011D
:1008500019A2223008F42AE08E010F5D1F4F822E6C
:10086000912CB12CA12CBF01A50194010E94CC08B0
:10087000F901CA016A300CF5605DD8016E938D01F3
:10088000232B242B252B79F790E080E0109721F083
:10089000BD01C7010E940404A1960FB6F894DEBF03
:1008A0000FBECDBFDF91CF911F910F91FF90EF90C1
:1008B000BF90AF909F908F900895695CDECF2F928C
:1008C0003F924F925F926F927F928F929F92AF92E0
:1008D000BF92CF92DF92EF92FF921F93CF93DF935D
:1008E000EC016A017B01722EAB019601CB01B601CE
:1008F0000E94250B6FE171E0811126C0460157016E
:10090000E894B7F82FEF3FEF4FE75FE7C501B40179
:100910000E94250B81110CC02FEF3FEF4FE75FE7DF
:10092000C501B4010E945B0963E271E0181664F02E
:100930002FEF3FEF4FE75FE4C701B6010E94B30A14
:100940001816B4F467E271E0CE01DF91CF911F91E8
:10095000FF90EF90DF90CF90BF90AF909F908F90DF
:100960007F906F905F904F903F902F900C94040475
:100970002FEF3FEF4FE75FECC701B6010E945B0925
:1009800087FDE0CF20E030E0A901C701B6010E9459
:100990005B09312C212C87FF09C06DE2CE010E943A
:1009A00054011C01F7FAF094F7F8F09410E060E0BD
:1009B00070E080E09FE3711641F020E030E040E21B
:1009C00051E40E9460091F5FF6CFA70196010E94C3
:1009D000EF082B013C010E94D2094B015C012AE087
:1009E000BC01A401CE010E9413047C01E20CF31CA3
:1009F0001123C1F1C501B4010E94010A9B01AC01A0
:100A0000C301B2010E94EE084B015C016EE2CE010F
:100A10000E945401E80EF91E115020F120E030E050
:100A200040E251E4C501B4010E94B80A2B013C0127
:100A30000E94D2094B01B12CA12C2AE0B501A401DE
:100A4000CE010E941304E80EF91EC501B4010E94F4
:100A5000010A9B01AC01C301B2010E94EE084B01E7
:100A60005C01DACFC701DF91CF911F91FF90EF902A
:100A7000DF90CF90BF90AF909F908F907F906F90BE
:100A80005F904F903F902F9008951F920F920FB656
:100A90000F9211242F933F938F939F93AF93BF9304
:100AA00080917F0190918001A0918101B09182019C
:100AB00030917E0123E0230F2D3758F50196A11DBB
:100AC000B11D20937E0180937F0190938001A093BC
:100AD0008101B09382018091830190918401A09162
:100AE0008501B09186010196A11DB11D80938301FE
:100AF00090938401A0938501B0938601BF91AF913B
:100B00009F918F913F912F910F900FBE0F901F904B
:100B1000189526E8230F0296A11DB11DD2CF1F9272
:100B20000F920FB60F9211242F933F934F935F9321
:100B30006F937F938F939F93AF93BF93EF93FF93A5
:100B400087E891E00E94D901FF91EF91BF91AF91A9
:100B50009F918F917F916F915F914F913F912F91D5
:100B60000F900FBE0F901F9018951F920F920FB607
:100B70000F9211242F938F939F93EF93FF93E09104
:100B80009701F09198018081E0919D01F0919E0183
:100B900082FD1BC090818091A0018F5F8F73209197
:100BA000A101821741F0E091A001F0E0E957FE4F6A
:100BB000958F8093A001FF91EF919F918F912F913D
:100BC0000F900FBE0F901F9018958081F4CFE7E82B
:100BD000F1E01382128288EE93E0A0E0B0E084831B
:100BE0009583A683B78385E091E09183808385EC2C
:100BF00090E09587848784EC90E09787868780ECE7
:100C000090E0918B808B81EC90E0938B828B82ECD7
:100C100090E0958B848B86EC90E0978B868B118E81
:100C2000128E138E148EE2E3F2E01382128287E1B9
:100C300091E0918380838CE084838FEF85838BE0C8
:100C4000868385E0878384E0808783E0818782E0F4
:100C500082871386148615861686178681E00E9481
:100C60004F03E4E2F2E080E090ECA9E7B4EC818786
:100C70009287A387B48785839683A783B0870895D7
:100C8000789484B5826084BD84B5816084BD85B567
:100C9000826085BD85B5816085BD80916E00816073
:100CA00080936E0010928100809181008260809319
:100CB000810080918100816080938100809180001B
:100CC0008160809380008091B10084608093B10046
:100CD0008091B00081608093B00080917A00846040
:100CE00080937A0080917A00826080937A0080916C
:100CF0007A00816080937A0080917A008068809386
:100D00007A001092C100E0919701F091980182E081
:100D10008083E0919301F09194011082E09195011C
:100D2000F09196018FEC808310929F01E0919B01DE
:100D3000F0919C0186E08083E0919901F0919A0105
:100D4000808180618083E0919901F0919A01808196
:100D500088608083E0919901F0919A018081806898
:100D60008083E0919901F0919A0180818F7D808349
:100D700060ED77E080E090E00E94870287E080935A
:100D8000310282E00E944F030E9447030BE910E00A
:100D9000412C50EC552E59E7652E54EC752E809160
:100DA0007C0190917D01892B09F09BC10E94470332
:100DB00080910001882309F4CBC180913102282F52
:100DC00030E0F901EB51FF4F3490F901EF52FF4F42
:100DD000E491F0E0EE0FFF1FE859FF4FC591D49169
:100DE00010922402109225021092260210922702DD
:100DF0001092280261E00E94FE0060E080913102C2
:100E00000E94B2000E942F014B015C0142E1C42EFE
:100E1000D12CE12CF12C0E942F01681979098A0943
:100E20009B09683E734081059105A8F321E0C21A31
:100E3000D108E108F10888EE880E83E0981EA11C15
:100E4000B11CC114D104E104F10429F761E08091DF
:100E500031020E94B200C8010197F1F760E0809171
:100E600031020E94FE0080E991E028812321A9F44B
:100E70000197D9F74092290250922A0260922B02E0
:100E800070922C0240922D0250922E0260922F02FC
:100E900070923002CEEFDFEFDEC080E991E0288172
:100EA000232119F00197D9F7E5CF98E2A92E20E880
:100EB000B22E912C80E991E02881232119F4019729
:100EC000D9F7D8CF0E942F016B017C0180E991E016
:100ED0002881232119F00197D9F7CCCF0E942F0147
:100EE0006C197D098E099F0969327105810591058B
:100EF00038F0E92DF0E0EC5DFD4F80818B29808397
:100F0000B69419F4939480E8B82EAA94A110D2CF85
:100F100061E0809131020E94FE0061E08091310227
:100F20000E94B200C09124026C2F70E090E080E03B
:100F30000E94010A6093290270932A0280932B0277
:100F400090932C02D09126026D2F70E090E080E00B
:100F50000E94010A60932D0270932E0280932F024B
:100F600090933002CD0F80912502C80F8091270207
:100F7000C80F80912802C8136CC083E990E00E94DA
:100F8000480240912D0250912E0260912F027091E3
:100F9000300222E087E891E00E945F046BE271E09A
:100FA00087E891E00E94040487E890E00E944802EC
:100FB0004091290250912A0260912B0270912C02DB
:100FC00022E087E891E00E945F046BE271E087E82D
:100FD00091E00E94040480E00E94F0036EE271E060
:100FE00082E392E00E94040440912D0250912E026F
:100FF00060912F027091300220E082E392E00E9423
:101000005F046FED82E392E00E94540166E371E0B9
:1010100082E392E00E94040481E00E94F00368E30E
:1010200071E082E392E00E94040440912902509111
:101030002A0260912B0270912C0220E082E392E060
:101040000E945F0464E471E082E392E00E94040481
:1010500048C0CFEFDFEF89E790E00E9448026BE2E3
:1010600071E087E891E00E94040482E790E00E942A
:1010700048026DE287E891E00E9454016E01DD0FA5
:10108000EE08FF0844275527BA014C195D096E097F
:101090007F092AE087E891E00E9413046BE271E087
:1010A00087E891E00E94040480E00E94F00366E477
:1010B00071E082E392E00E94040481E00E94F00368
:1010C00064E571E082E392E00E940404C701B60186
:1010D0000E94030AAB01BC0120E082E392E00E947F
:1010E0005F0480917C0190917D01833091050CF02B
:1010F00048C0019690937D0180937C0180914202CB
:10110000982F9460909342028C600E94410360ED9E
:1011100077E080E090E00E948702809142028B7F1E
:101120008093420288600E94410368EE73E080E091
:1011300090E00E94870280E090E0892B09F42FCE96
:101140000E94C501882309F42ACE0E94000027CE00
:1011500082EA90E00E9448026BE271E087E891E049
:101160000E94040480E00E94F00361E671E082E3E3
:1011700092E00E94040481E00E94F0036EE671E0B8
:1011800063CF10927D0110927C018091000191E06B
:10119000892780930001B2CFA1E21A2EAA1BBB1BA4
:1011A000FD010DC0AA1FBB1FEE1FFF1FA217B30733
:1011B000E407F50720F0A21BB30BE40BF50B661F49
:1011C000771F881F991F1A9469F76095709580950D
:1011D00090959B01AC01BD01CF0108955058BB27EC
:1011E000AA270E9406090C94790A0E946B0A38F01B
:1011F0000E94720A20F039F49F3F19F426F40C94EF
:10120000680A0EF4E095E7FB0C94620AE92F0E944D
:101210008A0A58F3BA17620773078407950720F004
:1012200079F4A6F50C94AC0A0EF4E0950B2EBA2FC7
:10123000A02D0B01B90190010C01CA01A0011124DC
:10124000FF27591B99F0593F50F4503E68F11A1688
:10125000F040A22F232F342F4427585FF3CF469519
:1012600037952795A795F0405395C9F77EF41F163B
:10127000BA0B620B730B840BBAF09150A1F0FF0F05
:10128000BB1F661F771F881FC2F70EC0BA0F621FF1
:10129000731F841F48F4879577956795B795F795E1
:1012A0009E3F08F0B0CF9395880F08F09927EE0F76
:1012B0009795879508950E943E0A08F481E0089565
:1012C0000E9474090C94790A0E94720A58F00E94D4
:1012D0006B0A40F029F45F3F29F00C94620A511127
:1012E0000C94AD0A0C94680A0E948A0A68F3992348
:1012F000B1F3552391F3951B550BBB27AA27621712
:101300007307840738F09F5F5F4F220F331F441F1E
:10131000AA1FA9F335D00E2E3AF0E0E832D0915052
:101320005040E695001CCAF72BD0FE2F29D0660F3F
:10133000771F881FBB1F261737074807AB07B0E882
:1013400009F0BB0B802DBF01FF2793585F4F3AF088
:101350009E3F510578F00C94620A0C94AD0A5F3FF1
:10136000E4F3983ED4F3869577956795B795F7950E
:101370009F5FC9F7880F911D9695879597F90895F6
:10138000E1E0660F771F881FBB1F62177307840792
:10139000BA0720F0621B730B840BBA0BEE1F88F7A1
:1013A000E09508950E94920A88F09F5798F0B92F0F
:1013B0009927B751B0F0E1F0660F771F881F991F8A
:1013C0001AF0BA95C9F714C0B13091F00E94AC0A76
:1013D000B1E008950C94AC0A672F782F8827B85F86
:1013E00039F0B93FCCF3869577956795B395D9F7E2
:1013F0003EF490958095709561957F4F8F4F9F4FEC
:101400000895E89409C097FB3EF4909580957095F7
:1014100061957F4F8F4F9F4F9923A9F0F92F96E940
:10142000BB279395F695879577956795B795F111B5
:10143000F8CFFAF4BB0F11F460FF1BC06F5F7F4F52
:101440008F4F9F4F16C0882311F096E911C0772364
:1014500021F09EE8872F762F05C0662371F096E86D
:10146000862F70E060E02AF09A95660F771F881F3C
:10147000DAF7880F9695879597F90895990F0008E0
:10148000550FAA0BE0E8FEEF16161706E807F90756
:10149000C0F012161306E407F50798F0621B730BF1
:1014A000840B950B39F40A2661F0232B242B252B72
:1014B00021F408950A2609F4A140A6958FEF811D15
:1014C000811D089597F99F6780E870E060E00895B6
:1014D0009FEF80EC089500240A941616170618064C
:1014E0000906089500240A94121613061406050628
:1014F0000895092E0394000C11F4882352F0BB0FB9
:1015000040F4BF2B11F460FF04C06F5F7F4F8F4F1B
:101510009F4F089557FD9058440F551F59F05F3F56
:1015200071F04795880F97FB991F61F09F3F79F005
:1015300087950895121613061406551FF2CF469587
:10154000F1DF08C0161617061806991FF1CF869509
:101550007105610508940895E894BB2766277727ED
:10156000CB0197F908950E943E0A08F48FEF089581
:101570000E94CB0A0C94790A0E946B0A38F00E94F0
:10158000720A20F0952311F00C94620A0C94680AF8
:1015900011240C94AD0A0E948A0A70F3959FC1F33E
:1015A000950F50E0551F629FF001729FBB27F00D11
:1015B000B11D639FAA27F00DB11DAA1F649F662766
:1015C000B00DA11D661F829F2227B00DA11D621FB5
:1015D000739FB00DA11D621F839FA00D611D221F6F
:1015E000749F3327A00D611D231F849F600D211D53
:1015F000822F762F6A2F11249F5750409AF0F1F0D6
:1016000088234AF0EE0FFF1FBB1F661F771F881F3E
:1016100091505040A9F79E3F510580F00C94620A0A
:101620000C94AD0A5F3FE4F3983ED4F3869577952A
:101630006795B795F795E7959F5FC1F7FE2B880FE4
:10164000911D9695879597F908950E943E0A880BFB
:10165000990B0895EE0FFF1F0590F491E02D09946A
:04166000F894FFCF2C
:101664000100000000FB015B0188016302B90197DE
:1016740001AB0100000000FE035B01840283026EE3
:10168400616E00696E66006F7666000D0A0054652F
:101694006D702E3A2000430048756D696469747951
:1016A4002E3A2000250044485431313A20457272C4
:1016B4006575720044485431313A20636F64652083
:1016C400004269656E76656E7565206175004750E8
:0C16D40041373838204F432F496F540035
:00000001FF
